:020000040800F2
:100000007814002001010008ED020008E502000854
:10001000E902000875010008390700080000000027
:10002000000000000000000000000000790400084B
:10003000CD0100080000000061030008650500080C
:100040001B0100081B0100081B0100081B01000820
:100050001B0100081B0100081B0100081B01000810
:100060001B0100081B0100081B0100081B01000800
:100070001B0100081B0100081B0100081B010008F0
:100080001B0100081B0100081B0100081B010008E0
:100090001B0100081B0100081B0100081B010008D0
:1000A0001B0100081B0100081B0100081B010008C0
:1000B0001B0100081B010008000000001B010008D4
:1000C0001B01000800000000000000001B010008E8
:1000D000000000001B0100081B01000800000000D8
:1000E0001B0100081B0100081B010008DFF80CD0F1
:1000F00000F02EF800480047590900087814002045
:100100000648804706480047FEE7FEE7FEE7FEE7B1
:10011000FEE7FEE7FEE7FEE7FEE7FEE7690500080B
:10012000ED00000830B50B460146002020220124D6
:1001300009E021FA02F59D4205D303FA02F5491BB5
:1001400004FA02F52844151EA2F10102F1DC30BDCB
:10015000064C074D06E0E06840F0010394E8070014
:1001600098471034AC42F6D3FFF7C4FF440B0008A5
:10017000640B000800BFFEE721B1026842F00102F3
:10018000026004E002684FF6FE731A400260704796
:1001900010B50022026847F6F0739A430C6A8B6828
:1001A00023430C6923434C6923438C692343CC6963
:1001B00023434C6A23438C6A23431A430260CB686F
:1001C00043600B6883604B68C36010BD70472DE9C6
:1001D000F0410246002500260020002300240027CD
:1001E00091F803C00CF00F0591F803C00CF0100C4F
:1001F000BCF1000F03D091F802C04CEA050591F85C
:1002000000C0BCF1000F31D0146800202BE04FF08B
:10021000010C0CFA00F3B1F800C00CEA03069E4290
:1002200020D183004FF00F0C0CFA03F7BC4305FA02
:1002300003FC4CEA040491F803C0BCF1280F06D17A
:100240004FF0010C0CFA00FCC2F814C00AE091F85F
:1002500003C0BCF1480F05D14FF0010C0CFA00FCB3
:10026000C2F810C0401C0828D1D31460B1F800C0F7
:10027000BCF1FF0F34DD546800202EE000F1080CC3
:100280004FF0010808FA0CF3B1F800C00CEA0306BD
:100290009E4221D183004FF00F0C0CFA03F7BC43B0
:1002A00005FA03FC4CEA040491F803C0BCF1280FE2
:1002B00005D100F1080C08FA0CF8C2F8148091F886
:1002C00003C0BCF1480F07D100F1080C4FF0010842
:1002D00008FA0CF8C2F81080401C0828CED35460ED
:1002E000BDE8F08100BFFEE700BFFEE770470000F9
:1002F00070B5002100230F22C47804B3154C246884
:1003000004F4E064C4F5E064210AC1F10403CA40C6
:10031000447804FA03F184781440214309010E4C17
:100320000678A155047804F01F050124AC40057837
:100330006D11AD0005F1E025C5F8004109E0047834
:1003400004F01F050124AC40044D0678761145F8F1
:10035000264070BD0CED00E000E400E080E100E02C
:100360007047000029B1064A52690243044B5A61A2
:1003700004E0034A52698243014B5A61704700000E
:100380000010024029B1064A92690243044B9A6167
:1003900004E0034A92698243014B9A61704700006E
:1003A0000010024030B500210022002400232D4D12
:1003B0006D6805F00C0121B1042905D0082923D16D
:1003C00005E0294D056022E0274D05601FE0254D21
:1003D0006D6805F47012234D6D6805F480340225B4
:1003E00005EB92421CB9214D554305600BE01D4DB4
:1003F0006D6805F400351DB11C4D5543056002E0E4
:10040000194D5543056002E0174D056000BF00BF60
:10041000144D6D6805F0F0010909154D6B5C056818
:10042000DD4045600F4D6D6805F4E061090A104D2F
:100430006B5C4568DD4085600A4D6D6805F4605170
:10044000C90A0B4D6B5C4568DD40C560054D6D68A4
:1004500005F44041890B074D6B5CC568B5FBF3F5AE
:10046000056130BD0010024000127A0000093D0015
:100470000000002010000020704710B500F002F8C6
:1004800010BD00000CB500200190009033480068BA
:1004900040F480303149086000BF3048006800F403
:1004A000003000900198401C0190009818B9019804
:1004B000B0F5A06FF1D12948006800F4003010B108
:1004C0000120009001E0002000900098012843D115
:1004D0002348006840F01000214908600846006881
:1004E00020F0030008600846006840F00200086041
:1004F0001A484068194948600846406848600846FC
:10050000406840F4806048600846406820F47C10F1
:1005100048600846406840F4E810486008460068B3
:1005200040F08070086000BF0C48006800F0007068
:100530000028F9D00948406820F0030007494860C6
:100540000846406840F00200486000BF0348406829
:1005500000F00C000828F9D10CBD0000001002408A
:10056000002002407047000010B51248006840F0BB
:10057000010010490860084640680F4908400D49CD
:100580004860084600680D4908400A490860084666
:10059000006820F4802008600846406820F4FE00CF
:1005A00048604FF41F008860FFF767FF0448054963
:1005B000086010BD001002400000FFF8FFFFF6FECB
:1005C0000050000808ED00E021B1828942F4005299
:1005D000828104E082894DF6FF731A408281704760
:1005E0001AB1838A0B43838202E0838A8B4383821E
:1005F000704702460020B1F5007F00D100BF13888C
:100600000B400BB1012000E000207047F0B503461D
:10061000002400260025002040F66A17B94200D1C8
:1006200000BF1846C1F3421401F01F06012707FA64
:1006300006F5012C01D10C3004E0022C01D1103060
:1006400000E014301AB107682F43076002E0076822
:10065000AF430760F0BD00002DE9F04786B00546C6
:100660000E460024A24600BFA1460027B08900B173
:1006700000BF2F462C8A4CF6FF700440F0880443DC
:100680002C82AC894EF6F3100440B08831890843BF
:10069000718908430443AC81AC8A4FF6FF400440A3
:1006A000B0890443AC8201A8FFF77CFE1F48874253
:1006B00002D1DDF810A001E0DDF80CA0A88900F45B
:1006C000004040B10AEBCA0000EB0A103168490053
:1006D000B0FBF1F807E00AEBCA0000EB0A10316842
:1006E0008900B0FBF1F86420B8FBF0F004012009A8
:1006F000642101FB1089A88900F4004040B1322038
:1007000000EBC900B0FBF1F000F00700044308E083
:10071000322000EB09106421B0FBF1F000F00F0073
:1007200004432C8106B0BDE8F0870000003801408A
:10073000C1F308028280704700BFFEE70FB4054B8B
:1007400010B503A9044A029800F018F810BC5DF82F
:1007500014FB0000350900081400002002E008C85E
:10076000121F08C1002AFAD170477047002001E02B
:1007700001C1121F002AFBD1704700002DE9FF4F75
:100780008BB09A460F460546002606E025280BD07A
:1007900052460D9990476D1C761C28780028F5D19B
:1007A0000FB03046BDE8F08F0024A046012260491A
:1007B00000E0044315F8013F203B02FA03F0084231
:1007C000F7D128782E2817D115F8010F44F004042A
:1007D0002A280ED06FF02F022878A0F130010929C5
:1007E0000AD808EB880102EB410100EB01086D1CFF
:1007F000F2E757F8048B6D1C287869283ED006DC98
:100800000028CDD063280BD0642804D136E07328AB
:1008100010D075284BD052460D999047761C85E034
:1008200017F8040B8DF8000000208DF80100E94650
:10083000012003E057F8049B4FF0FF3061074FF0B1
:10084000000401D40AE0641C44450DDA8442FADB5A
:1008500019F804100029F6D106E0641C8442FCDB80
:1008600019F804100029F8D1264404E019F8010B06
:1008700052460D999047641EF8D257E001CF4FF0D1
:100880000A0B002802DA40422D2102E0210504D59E
:100890002B218DF82410012103E0E10705D0202150
:1008A000F7E70DF1200908910CE00021F9E701CFED
:1008B0004FF00A0BF9E75946FFF734FC01F130021B
:1008C00009F8012D0028F6D1ADEB090000F1200B4D
:1008D000600701D44FF00108D84502DDA8EB0B00FA
:1008E00000E000208046002406E009A85246005D92
:1008F0000D999047641C761C08988442F5DB04E04F
:10090000302052460D999047761CB8F10001A8F1AD
:100910000108F5DC05E019F8010B52460D999047E6
:10092000761CBBF10001ABF1010BF4DC6D1C34E76C
:100930000928010070B504460D46E1B20548FFF7ED
:10094000F7FE00BF80210348FFF753FE0028F9D0CF
:10095000204670BD003801404FF4E13000F06CF8E3
:100960001EA0FFF7EBFE002437E02048806D1F49F2
:10097000496D884227D01D48806D40681B4A926DA2
:100980001268801A411C1AA0FFF7D8FE002408E064
:100990001648806D0068015D1EA0FFF7CFFE601C49
:1009A00084B21248806D40681049896D0968401A08
:1009B000401CA042ECDC0CA0FFF7C0FE0B48806D91
:1009C00008300A4988650948806D0849C96D884220
:1009D00003D10648001D011F8865C6E768656C6C79
:1009E0006F20776F726C64210D0A000018100020D0
:1009F000796F7520686176652072656365697665D3
:100A00006420256420627974657320646174610DCB
:100A10000A000000256300000548011F486588653D
:100A20004830C865002008800248496D086070475A
:100A30001C1000201800002010B592B004460121BF
:100A40000420FFF79FFC01218803FFF79BFC18207F
:100A50008DF847004FF40070ADF8440003208DF886
:100A6000460011A93348FFF7B2FB04208DF8470078
:100A70000002ADF8440003208DF8460011A92D486E
:100A8000FFF7A5FB0D940020ADF840000C20ADF859
:100A90003E000020ADF83C00ADF83A000DA9264814
:100AA000FFF7DAFD25208DF8300000208DF83100A9
:100AB0008DF8320001208DF833000CA8FFF718FCE8
:100AC000012240F224411C48FFF7A0FD0121084605
:100AD000FFF748FC1848001D0190184802900020BC
:100AE000039040F2011004900020059080200690B1
:100AF00000200790089009904FF400500A9001A937
:100B00000F48FFF745FB012240F224410A48FFF756
:100B10007DFD01210848FFF757FD01210848FFF737
:100B20002BFB012240210448FFF75AFDFFF774FF19
:100B300012B010BD0008014000380140180000202C
:100B400058000240640B000800000020180000005C
:100B50005C0700087C0B00081800002060140000EF
:100B60006C070008000000000102030401020304F6
:0C0B700006070809020406080000000047
:04000005080000ED02
:00000001FF
